{
  "contractName": "Reputation",
  "abi": [
    {
      "constant": true,
      "inputs": [
        {
          "name": "",
          "type": "address"
        },
        {
          "name": "",
          "type": "address"
        }
      ],
      "name": "outgoingRatings",
      "outputs": [
        {
          "name": "",
          "type": "bool"
        }
      ],
      "payable": false,
      "stateMutability": "view",
      "type": "function"
    },
    {
      "constant": true,
      "inputs": [
        {
          "name": "",
          "type": "uint256"
        }
      ],
      "name": "ratings",
      "outputs": [
        {
          "name": "from",
          "type": "address"
        },
        {
          "name": "to",
          "type": "address"
        }
      ],
      "payable": false,
      "stateMutability": "view",
      "type": "function"
    },
    {
      "constant": true,
      "inputs": [],
      "name": "owner",
      "outputs": [
        {
          "name": "",
          "type": "address"
        }
      ],
      "payable": false,
      "stateMutability": "view",
      "type": "function"
    },
    {
      "inputs": [],
      "payable": false,
      "stateMutability": "nonpayable",
      "type": "constructor"
    },
    {
      "anonymous": false,
      "inputs": [
        {
          "indexed": false,
          "name": "success",
          "type": "bool"
        },
        {
          "indexed": false,
          "name": "src",
          "type": "address"
        },
        {
          "indexed": false,
          "name": "target",
          "type": "address"
        }
      ],
      "name": "RatingSuccessfullyAdded",
      "type": "event"
    },
    {
      "constant": false,
      "inputs": [
        {
          "name": "toRate",
          "type": "address"
        }
      ],
      "name": "rate",
      "outputs": [
        {
          "name": "",
          "type": "bool"
        }
      ],
      "payable": false,
      "stateMutability": "nonpayable",
      "type": "function"
    },
    {
      "constant": true,
      "inputs": [],
      "name": "getNumRatings",
      "outputs": [
        {
          "name": "",
          "type": "uint256"
        }
      ],
      "payable": false,
      "stateMutability": "view",
      "type": "function"
    },
    {
      "constant": true,
      "inputs": [
        {
          "name": "index",
          "type": "uint256"
        }
      ],
      "name": "getRating",
      "outputs": [
        {
          "name": "",
          "type": "address"
        },
        {
          "name": "",
          "type": "address"
        }
      ],
      "payable": false,
      "stateMutability": "view",
      "type": "function"
    },
    {
      "constant": true,
      "inputs": [],
      "name": "getOwner",
      "outputs": [
        {
          "name": "",
          "type": "address"
        }
      ],
      "payable": false,
      "stateMutability": "view",
      "type": "function"
    }
  ],
  "bytecode": "0x608060405234801561001057600080fd5b50336000806101000a81548173ffffffffffffffffffffffffffffffffffffffff021916908373ffffffffffffffffffffffffffffffffffffffff160217905550610a53806100606000396000f300608060405260043610610083576000357c0100000000000000000000000000000000000000000000000000000000900463ffffffff1680630ba9d8ca146100885780632acd46e8146100e35780635d30e84d1461015e578063893d20e8146101fe5780638da5cb5b14610255578063a9775a10146102ac578063b0ee0e9f146102d7575b600080fd5b34801561009457600080fd5b506100c9600480360381019080803573ffffffffffffffffffffffffffffffffffffffff169060200190929190505050610377565b604051808215151515815260200191505060405180910390f35b3480156100ef57600080fd5b50610144600480360381019080803573ffffffffffffffffffffffffffffffffffffffff169060200190929190803573ffffffffffffffffffffffffffffffffffffffff169060200190929190505050610856565b604051808215151515815260200191505060405180910390f35b34801561016a57600080fd5b5061018960048036038101908080359060200190929190505050610885565b604051808373ffffffffffffffffffffffffffffffffffffffff1673ffffffffffffffffffffffffffffffffffffffff1681526020018273ffffffffffffffffffffffffffffffffffffffff1673ffffffffffffffffffffffffffffffffffffffff1681526020019250505060405180910390f35b34801561020a57600080fd5b506102136108f8565b604051808273ffffffffffffffffffffffffffffffffffffffff1673ffffffffffffffffffffffffffffffffffffffff16815260200191505060405180910390f35b34801561026157600080fd5b5061026a610921565b604051808273ffffffffffffffffffffffffffffffffffffffff1673ffffffffffffffffffffffffffffffffffffffff16815260200191505060405180910390f35b3480156102b857600080fd5b506102c1610946565b6040518082815260200191505060405180910390f35b3480156102e357600080fd5b5061030260048036038101908080359060200190929190505050610953565b604051808373ffffffffffffffffffffffffffffffffffffffff1673ffffffffffffffffffffffffffffffffffffffff1681526020018273ffffffffffffffffffffffffffffffffffffffff1673ffffffffffffffffffffffffffffffffffffffff1681526020019250505060405180910390f35b60006103816109e1565b600073ffffffffffffffffffffffffffffffffffffffff168373ffffffffffffffffffffffffffffffffffffffff16141515156103bd57600080fd5b8273ffffffffffffffffffffffffffffffffffffffff163373ffffffffffffffffffffffffffffffffffffffff16141561049f577f1a74be0515d0e5baa294a47ea8faade2f980d4af9c301f54fe833d881424574d600080600060405180841515151581526020018373ffffffffffffffffffffffffffffffffffffffff1673ffffffffffffffffffffffffffffffffffffffff1681526020018273ffffffffffffffffffffffffffffffffffffffff1673ffffffffffffffffffffffffffffffffffffffff168152602001935050505060405180910390a160009150610850565b60011515600160003373ffffffffffffffffffffffffffffffffffffffff1673ffffffffffffffffffffffffffffffffffffffff16815260200190815260200160002060008573ffffffffffffffffffffffffffffffffffffffff1673ffffffffffffffffffffffffffffffffffffffff16815260200190815260200160002060009054906101000a900460ff1615151415156107a65760018060003373ffffffffffffffffffffffffffffffffffffffff1673ffffffffffffffffffffffffffffffffffffffff16815260200190815260200160002060008573ffffffffffffffffffffffffffffffffffffffff1673ffffffffffffffffffffffffffffffffffffffff16815260200190815260200160002060006101000a81548160ff02191690831515021790555033816000019073ffffffffffffffffffffffffffffffffffffffff16908173ffffffffffffffffffffffffffffffffffffffff168152505082816020019073ffffffffffffffffffffffffffffffffffffffff16908173ffffffffffffffffffffffffffffffffffffffff16815250506002819080600181540180825580915050906001820390600052602060002090600202016000909192909190915060008201518160000160006101000a81548173ffffffffffffffffffffffffffffffffffffffff021916908373ffffffffffffffffffffffffffffffffffffffff16021790555060208201518160010160006101000a81548173ffffffffffffffffffffffffffffffffffffffff021916908373ffffffffffffffffffffffffffffffffffffffff1602179055505050507f1a74be0515d0e5baa294a47ea8faade2f980d4af9c301f54fe833d881424574d6001338560405180841515151581526020018373ffffffffffffffffffffffffffffffffffffffff1673ffffffffffffffffffffffffffffffffffffffff1681526020018273ffffffffffffffffffffffffffffffffffffffff1673ffffffffffffffffffffffffffffffffffffffff168152602001935050505060405180910390a160019150610850565b7f1a74be0515d0e5baa294a47ea8faade2f980d4af9c301f54fe833d881424574d600080600060405180841515151581526020018373ffffffffffffffffffffffffffffffffffffffff1673ffffffffffffffffffffffffffffffffffffffff1681526020018273ffffffffffffffffffffffffffffffffffffffff1673ffffffffffffffffffffffffffffffffffffffff168152602001935050505060405180910390a1600091505b50919050565b60016020528160005260406000206020528060005260406000206000915091509054906101000a900460ff1681565b60028181548110151561089457fe5b90600052602060002090600202016000915090508060000160009054906101000a900473ffffffffffffffffffffffffffffffffffffffff16908060010160009054906101000a900473ffffffffffffffffffffffffffffffffffffffff16905082565b60008060009054906101000a900473ffffffffffffffffffffffffffffffffffffffff16905090565b6000809054906101000a900473ffffffffffffffffffffffffffffffffffffffff1681565b6000600280549050905090565b60008060028381548110151561096557fe5b906000526020600020906002020160000160009054906101000a900473ffffffffffffffffffffffffffffffffffffffff166002848154811015156109a657fe5b906000526020600020906002020160010160009054906101000a900473ffffffffffffffffffffffffffffffffffffffff1691509150915091565b6040805190810160405280600073ffffffffffffffffffffffffffffffffffffffff168152602001600073ffffffffffffffffffffffffffffffffffffffff16815250905600a165627a7a72305820e94edf59707a848365ab486da58de9a02d214b1e6198fe1225a7255fe341e8c50029",
  "source": "pragma solidity ^0.4.15;\n\ncontract Reputation {\n\n\taddress public owner;\n\t// keep track of whether one addr has already rated another addr\n\tmapping(address => mapping(address => bool)) public outgoingRatings;\n\tRating[] public ratings;\n\tstruct Rating{\n\t    address from;\n\t    address to;\n\t}\n\n\t/*\n\t * Events\n\t*/\n\tevent RatingSuccessfullyAdded(bool success, address src, address target);\n\n\tmodifier ownerOnly() {\n\t\tif (msg.sender == owner) {\n\t\t\t_;\n\t\t}\n\t}\n\n\tfunction Reputation() {\n\t\towner = msg.sender;\n\t}\n\n\t/*\n\t * This function can be called by any public address to\n\t * rate any other address.\n\t*/\n\tfunction rate(address toRate) public returns (bool) {\n\t\trequire(toRate != address(0));\n\t\tif (msg.sender == toRate) {\n\t\t\tRatingSuccessfullyAdded(false, address(0), address(0));\n\t\t\treturn false;\n\t\t}\n\n\t\tif (outgoingRatings[msg.sender][toRate] != true) {\n\t\t\toutgoingRatings[msg.sender][toRate] = true;\n\n\t\t\tRating memory newRating;\n\t        newRating.from = msg.sender;\n\t        newRating.to = toRate;\n\t        ratings.push(newRating);\n\t        RatingSuccessfullyAdded(true, msg.sender, toRate);\n\t        return true;\n\t\t}\n\n\t\tRatingSuccessfullyAdded(false, address(0), address(0));\n\t\treturn false;\n\t}\n\n\t/*\n\t * Constant getter functions\n\t*/\n\tfunction getNumRatings() public constant returns(uint) {\n\t\treturn ratings.length;\n\t}\n\n\tfunction getRating(uint index) public constant returns(address, address) {\n\t\treturn (ratings[index].from, ratings[index].to);\n\t}\n\n\tfunction getOwner() public constant returns(address) {\n\t\treturn owner;\n\t}\n}\n",
  "sourcePath": "/Users/sheikhar/utsnew/RepuChain/contracts/Reputation.sol",
  "compiler": {
    "name": "solc",
    "version": "0.4.23+commit.124ca40d.Emscripten.clang"
  },
  "schemaVersion": "2.0.0",
  "updatedAt": "2019-10-16T00:54:23.337Z"
}